:100000000C942A000C9447000C9447000C94470071
:100010000C9447000C9447000C9447000C94470044
:100020000C9447000C9447000C9447000C94470034
:100030000C9447000C9447000C9447000C94470024
:100040000C9447000C9447000C9447000C94470014
:100050000C94470011241FBECFE5D8E0DEBFCDBF12
:1000600011E0A0E6B0E0E8E1FEE002C005900D92EC
:10007000AA30B107D9F721E0AAE0B1E001C01D9292
:10008000AD31B207E1F70E9445050C940A070C94C4
:10009000000010921B010E94730310920B0110923A
:1000A0000A01089540E650E063E081E00E94760393
:1000B0004CE650E062E082E00E9476032FEF8DE391
:1000C00099E4215080409040E1F700C000000C947A
:1000D0007303CF9380911B018111A0C04AE750E0C8
:1000E00061E081E00E94760342E850E061E082E056
:1000F0000E9476034AE850E069E082E00E947603BD
:1001000069E081E00E946503C1E0CC2309F455C099
:100110000E94EE0180931A018435B9F3833429F4E7
:100120000E9449000E94690048C09FEC980F9230DD
:10013000F8F4813319F410921C0103C091E09093FC
:100140001C010E945003C2E30E94EE0180931A0139
:10015000833419F40E94490008C08FE19EE401979E
:10016000F1F700C00000C15079F70E94730325C069
:1001700040E161E081E00E94800343E950E061E0FA
:1001800081E00E9476039FEF29E688E191502040AC
:100190008040E1F700C0000040E161E081E00E94A2
:1001A00080034AE750E061E081E00E94760369E065
:1001B00081E00E946503C1E0ABCF80911C018111F9
:1001C00014C041EA50E061E081E00E94760348EA11
:1001D00050E061E082E00E94760340EB50E069E08D
:1001E00082E00E94760368E013C049EB50E061E0D2
:1001F00081E00E94760348EA50E061E082E00E94DC
:10020000760340EB50E069E082E00E94760369E00B
:1002100081E00E94650381E080931B010E94EE0152
:1002200080931A01843509F4AFC090ED980F9A308D
:1002300030F08D3269F580910B01811129C08091D8
:100240000A018130A9F480911C014AE0811106C0A5
:1002500068E081E00E94800368E005C069E081E019
:100260000E94800369E081E00E94650310920A0108
:1002700080911A010E94500380910B01E82FF0E059
:10028000E45FFE4F90911A0190838F5F80930B0182
:10029000E0910B01EE2309F470C080911A018D33B7
:1002A00009F06BC080910A01811167C081E08093E1
:1002B0000A01F0E0E45FFE4F108210920B018CE027
:1002C00091E00E949903DC01CB0180931601909389
:1002D0001701A0931801B093190120911C0121115D
:1002E00036C0B7FD16C0893621E09207A105B105D9
:1002F0002CF088569140A109B109F5CF80931601E1
:1003000090931701A0931801B09319010E94A304C0
:1003100034C088392EEF92072FEFA207B2072CF4D2
:1003200088599E4FAF4FBF4FF4CFB095A095909591
:1003300081959F4FAF4FBF4F809316019093170148
:10034000A0931801B09319010E94F40416C0B7FDE0
:1003500003C00E94C80411C0B095A09590958195E6
:100360009F4FAF4FBF4F8093160190931701A093FB
:100370001801B09319010E94190580911A01833464
:1003800019F40E944900A6CECF910895CF93DF9330
:10039000C0E0D0E0FE01EF51FF4F9081892F8F73B5
:1003A00096FD02C061E001C060E00E943206219625
:1003B000C330D10579F7DF91CF91089561E08CE0EA
:1003C0000E94320661E08DE00E94320661E08EE01C
:1003D0000E94320661E08FE00C9432069F92AF9249
:1003E000BF92CF92DF92EF92FF920F931F93CF9322
:1003F000DF9398EEC92E90E0D92ECCEED0E024E524
:10040000F22EF601E1906F0160E08E2D0E9432061F
:1004100084EEA82E80E0B82E00E010E0F501919067
:100420005F01892D0E94B106811115C0FE01E00F08
:10043000F11FF0808FE19EE40197F1F700C000000A
:10044000892D0E94B1068823D9F3EFE1FEE43197AC
:10045000F1F700C000000F5F1F4F04301105F1F6E7
:1004600061E08E2D0E9432062496F0E0CC3FDF073B
:1004700041F68F2DDF91CF911F910F91FF90EF905B
:10048000DF90CF90BF90AF909F900895AF92BF92B2
:10049000DF92EF92FF920F931F93CF93DF93982FEA
:1004A0009F70D92EC82FC295CF7060E081E00E9466
:1004B000320682E0E82E81E0F82E570103E010E0DA
:1004C000D0E0BE01002E02C0759567950A94E2F750
:1004D0006170F50182915F010E943206015011099D
:1004E00080F761E082E00E9432068FEC97E001978E
:1004F000F1F700C0000060E082E00E943206EFECFD
:10050000F7E03197F1F700C00000C3E0D0E00D2D17
:1005100010E0B8010C2E02C0759567950A94E2F7B9
:100520006170F70182917F010E943206219788F75E
:1005300061E082E00E9432068FEC97E00197F1F7CC
:1005400000C0000060E082E00E943206EFECF7E0BD
:100550003197F1F700C00000DF91CF911F910F910B
:10056000FF90EF90DF90BF90AF900895AF92BF9251
:10057000DF92EF92FF920F931F93CF93DF93982F09
:100580009F70D92EC82FC295CF7061E081E00E9484
:10059000320682E0E82E81E0F82E570103E010E0F9
:1005A000D0E0BE01002E02C0759567950A94E2F76F
:1005B0006170F50182915F010E94320601501109BC
:1005C00080F761E082E00E9432068FEC97E00197AD
:1005D000F1F700C0000060E082E00E943206EFEC1C
:1005E000F7E03197F1F700C00000C3E0D0E00D2D37
:1005F00010E0B8010C2E02C0759567950A94E2F7D9
:100600006170F70182917F010E943206219788F77D
:1006100061E082E00E9432068FEC97E00197F1F7EB
:1006200000C0000060E082E00E943206EFECF7E0DC
:100630003197F1F700C00000DF91CF911F910F912A
:10064000FF90EF90DF90BF90AF9008952FE788E381
:1006500091E0215080409040E1F700C0000082E02E
:100660000E94460288E20E9446028FEC97E00197C2
:10067000F1F700C000008CE00E9446028FEC97E08A
:100680000197F1F700C0000081E00E9446028FE070
:1006900097E20197F1F700C0000086E00C94460253
:1006A0000C94B6020F931F93CF938C01C0E0F80116
:1006B000EC0FF11D8081882321F00E94B602CF5FEC
:1006C000F6CFCF911F910F910895813021F48FEFD4
:1006D000860F806805C0823029F48FEF860F806C0A
:1006E0000C944602089581E00C944602CF93DF9368
:1006F000EA010E946503CE01DF91CF910C94520371
:100700000F931F93CF93DF93D82F162F042F0E94A0
:100710006503C0E0C01729F080E20E94B602CF5FF7
:10072000F9CF612F8D2FDF91CF911F910F910C94F5
:100730006503CF92DF92EF92FF921F93CF93DF93E7
:10074000EC011881F1E01D3209F0F0E060E070E0AA
:10075000CB01DE01AF0FB11DEC91EE23C9F020ED0E
:100760002E0F2A3098F4AAE0B0E09B01AC010E9461
:10077000F0064E2F50E09A01205331096901330FE2
:10078000EE08FF086C0D7D1D8E1D9F1DFF5FE1CFE4
:100790001D3239F490958095709561957F4F8F4FFC
:1007A0009F4FDF91CF911F91FF90EF90DF90CF90FF
:1007B0000895CF93DF93C0E0D0E0FE01EE5FFE4FDF
:1007C0009081892F8F7396FF02C060E001C061E0C5
:1007D0000E9432062196C730D10579F7DF91CF917B
:1007E000089561E080E10E94320660E082E10E94AB
:1007F000320660E081E10E94320660E083E10E94FF
:1008000032068FE097E20197F1F700C0000060E048
:1008100080E10E94320661E082E10E94320660E0DF
:1008200081E10E94320660E083E10E9432068FE09F
:1008300097E20197F1F700C0000060E080E10E94BC
:10084000320660E082E10E94320661E081E10E94AE
:10085000320660E083E10E9432068FE097E2019762
:10086000F1F700C0000060E080E10E94320660E025
:1008700082E10E94320660E081E10E94320661E07E
:1008800083E10E9432068FE097E20197F1F700C002
:100890000000089561E080E10E94320660E083E19B
:1008A0000E94320660E081E10E94320660E082E14F
:1008B0000E9432068FE097E20197F1F700C0000036
:1008C00060E080E10E94320661E083E10E9432062E
:1008D00060E081E10E94320660E082E10E9432061F
:1008E0008FE097E20197F1F700C0000060E080E13F
:1008F0000E94320660E083E10E94320661E081E1FD
:100900000E94320660E082E10E9432068FE097E2A8
:100910000197F1F700C0000060E080E10E9432061C
:1009200060E083E10E94320660E081E10E943206CD
:1009300061E082E10E9432068FE097E20197F1F7D1
:1009400000C0000008950F931F93CF93DF93A0E0A2
:10095000B0E0BC01CD0129E0660F771F881F991F09
:100960002A95D1F728E631E040E050E00E94CE061B
:10097000E90100E010E00C171D0728F40E94F103C4
:100980000F5F1F4FF8CFDF91CF911F910F91089507
:100990008F929F92AF92BF92CF92DF92EF92FF928F
:1009A000C82ED12CE12CF12C89E0CC0CDD1CEE1CE6
:1009B000FF1C8A95D1F7812C912C54018C149D0435
:1009C000AE04BF0441F00E94F1038FEF881A980A29
:1009D000A80AB80AF3CFFF90EF90DF90CF90BF90B6
:1009E000AF909F908F9008950F931F93CF93DF93B5
:1009F000A0E0B0E0BC01CD0129E0660F771F881FA1
:100A0000991F2A95D1F728E631E040E050E00E9496
:100A1000CE06E90100E010E00C171D0728F40E9443
:100A20004A040F5F1F4FF8CFDF91CF911F910F91B5
:100A300008958F929F92AF92BF92CF92DF92EF92E2
:100A4000FF92C82ED12CE12CF12C89E0CC0CDD1CBE
:100A5000EE1CFF1C8A95D1F7812C912C54018C142B
:100A60009D04AE04BF0441F00E944A048FEF881A2F
:100A7000980AA80AB80AF3CFFF90EF90DF90CF90C2
:100A8000BF90AF909F908F9008950E9454050E9450
:100A9000D9030E94C6010E9426030E94DE010E9423
:100AA00052000E946900FDCFE1ECF0E040E081E0FF
:100AB00090E05191342F369536953695242F277036
:100AC000513009F443C020F0523009F482C0C5C04F
:100AD000323001F1333061F1313071F05AB3BC0181
:100AE00002C0660F771F2A95E2F79B01352F322B44
:100AF0003ABB3BB320953DC057B3BC0102C0660F63
:100B0000771F2A95E2F79B01352F322B37BB38B37D
:100B100020953EC054B3BC0102C0660F771F2A95D2
:100B2000E2F79B01352F322B34BB35B320953FC004
:100B300051B3BC0102C0660F771F2A95E2F79B01F3
:100B4000352F322B31BB32B3209541C0323011F1F9
:100B5000333081F1313079F05AB3BC0102C0660FF5
:100B6000771F2A95E2F79B012095352F32233ABB58
:100B70003BB3232342C057B3BC0102C0660F771FAB
:100B80002A95E2F79B012095352F322337BB38B3E6
:100B9000232343C054B3BC0102C0660F771F2A95BC
:100BA000E2F79B012095352F322334BB35B3232345
:100BB00025BB53C051B3BC0102C0660F771F2A95F5
:100BC000E2F79B012095352F322331BB32B323232B
:100BD00043C0323021F1333089F1313081F05AB3E2
:100BE000BC0102C0660F771F2A95E2F79B01362FE2
:100BF000309535233ABB3BB3232B2BBB2EC057B3C9
:100C0000BC0102C0660F771F2A95E2F79B01362FC1
:100C10003095352337BB38B3232B28BB1EC054B3C4
:100C2000BC0102C0660F771F2A95E2F79B01362FA1
:100C30003095352334BB35B3232BBACF51B3BC0128
:100C400002C0660F771F2A95E2F79B01362F309579
:100C5000352331BB32B3232B22BB4F5F403209F027
:100C600028CF0895982F9695969596958770613020
:100C7000C1F5913091F028F09230D9F0933029F1FC
:100C800008954BB321E030E0B90102C0660F771F31
:100C90008A95E2F7CB01842B38C048B321E030E0DD
:100CA000B90102C0660F771F8A95E2F7CB01842B4A
:100CB0003AC045B321E030E0B90102C0660F771FAA
:100CC0008A95E2F7CB01842B3CC042B321E030E0AF
:100CD000B90102C0660F771F8A95E2F7CB01842B1A
:100CE0003EC09130A1F028F09230F9F0933059F1E4
:100CF00008954BB321E030E0B90102C0660F771FC1
:100D00008A95E2F7CB01809584238BBB089548B385
:100D100021E030E0B90102C0660F771F8A95E2F743
:100D2000CB018095842388BB089545B321E030E052
:100D3000B90102C0660F771F8A95E2F7CB01809553
:100D4000842385BB089542B321E030E0B90102C09D
:100D5000660F771F8A95E2F7CB018095842382BBCB
:100D60000895282F2770869586958695813049F0BD
:100D700030F0823041F0833079F480B305C089B31C
:100D800003C086B301C083B390E002C095958795F8
:100D90002A95E2F78170089580E00895A1E21A2E65
:100DA000AA1BBB1BFD010DC0AA1FBB1FEE1FFF1F0F
:100DB000A217B307E407F50720F0A21BB30BE40B5F
:100DC000F50B661F771F881F991F1A9469F76095A6
:100DD0007095809590959B01AC01BD01CF01089560
:100DE0000E94FB06A59F900DB49F900DA49F800DBF
:100DF000911D11240895A29FB001B39FC001A39F2C
:100E0000700D811D1124911DB29F700D811D112443
:080E1000911D0895F894FFCF35
:100E18003C3C57454C434F4D453E3E00535445508E
:100E2800504552204D4F544F520043686F696365D7
:100E38003A00312E414E474C4500322E524F544114
:100E480054450057726F6E6720456E747279212180
:100E580000416E676C653A00504F533E3E43570061
:100E68004E45473E3E434357006E6F2E526F743ACD
:100E7800000000000000000000000000000000006A
:100E88000000000000020202020000020202020149
:100E9800011A1B001A1B1C1D0C0D0E0F3738392F99
:100EA8003435362A3132332D43303D2B02010304C9
:0A0EB8000506494A4B4C4D4E4F0011
:00000001FF
